:100000000C945D000C9485000C9485000C94850084
:100010000C9485000C9485000C9485000C9485004C
:100020000C9485000C9485000C9485000C9485003C
:100030000C9485000C9485000C9485000C9485002C
:100040000C942B040C9485000C949B040C94750464
:100050000C9485000C9485000C9485000C9485000C
:100060000C9485000C94850000000008000201003B
:100070000003040700000000000000000000000072
:10008000250028002B0000000000240027002A0083
:10009000040404040404040402020202020203032E
:1000A0000303030301020408102040800102040836
:1000B0001020010204081020D70711241FBECFEF23
:1000C000D8E0DEBFCDBF23E0AEE7B2E001C01D92B5
:1000D000A03FB207E1F712E0A0E0B1E0E2E6F5E10F
:1000E00002C005900D92AE37B107D9F710E0CDE50B
:1000F000D0E004C02197FE010E948508CC35D107CD
:10010000C9F70E94CD040C94AF0A0C94000090E053
:10011000FC01EC55FF4F2491FC01E057FF4F849107
:10012000882399F090E0880F991FFC01EA57FF4F50
:10013000A591B491FC01E458FF4F859194918FB73C
:10014000F894EC91E22BEC938FBF08952FB7F894BD
:1001500080914B0390914C03A0914D03B0914E03BD
:100160002FBF8093570390935803A0935903B093E4
:100170005A03E0914F03F09150030284F385E02D80
:100180008FE493E0099597FF26C02FB7F8948091EC
:100190004B0390914C03A0914D03B0914E032FBFA0
:1001A00040915703509158036091590370915A033D
:1001B000841B950BA60BB70B40915303509154032E
:1001C000609155037091560384179507A607B707EA
:1001D00080F28FEF9FEF089590E0FC01E859FF4F08
:1001E0003491FC01EC55FF4F2491FC01E057FF4F87
:1001F000E491EE2309F43BC0332339F1333091F01D
:1002000038F43130A9F0323001F584B58F7D12C059
:10021000373091F03830A1F03430B9F4809180005B
:100220008F7D03C0809180008F77809380000DC008
:1002300084B58F7784BD09C08091B0008F7703C0EB
:100240008091B0008F7D8093B000F0E0EE0FFF1F33
:10025000E458FF4FA591B4918FB7F894EC916111D8
:1002600003C020952E2301C02E2B2C938FBF089501
:100270008E3008F08E508770806480937C0080916F
:100280007A00806480937A0080917A0086FDFCCFAA
:10029000809178002091790090E0922B08953FB7EB
:1002A000F8948091470390914803A0914903B0913D
:1002B0004A0326B5A89B05C02F3F19F00196A11D42
:1002C000B11D3FBFBA2FA92F982F8827820F911DEC
:1002D000A11DB11DBC01CD0142E0660F771F881F33
:1002E000991F4A95D1F708958F929F92AF92BF922E
:1002F000CF92DF92EF92FF926B017C010E944F013F
:100300004B015C01C114D104E104F104F1F00E943D
:100310004F01DC01CB0188199909AA09BB09883E64
:100320009340A105B10570F321E0C21AD108E1089C
:10033000F10888EE880E83E0981EA11CB11CC11440
:10034000D104E104F10419F7DDCFFF90EF90DF90C5
:10035000CF90BF90AF909F908F900895CF93DF93F1
:10036000EC0160E070E0CB010E94740160E08881E4
:100370000E94EC0060E070E0CB01DF91CF910C9423
:100380007401CF92DF92EF92FF920F931F93CF935E
:10039000DF936C017A018B01C0E0D0E0CE15DF0560
:1003A00089F0D8016D918D01D601ED91FC910190FC
:1003B000F081E02DC6010995892B11F47E0102C060
:1003C0002196ECCFC701DF91CF911F910F91FF9044
:1003D000EF90DF90CF900895089580E090E0089529
:1003E000FC01538D448D252F30E0842F90E0821B3B
:1003F000930B541710F0CF96089501970895FC01C0
:10040000918D828D981761F0828DDF01A80FB11D4B
:100410005D968C91928D9F5F9F73928F90E008956F
:100420008FEF9FEF0895FC01918D828D981731F029
:10043000828DE80FF11D858D90E008958FEF9FEF7D
:100440000895FC01918D228D892F90E0805C9F4F53
:10045000821B91098F73992708958FE493E00E947E
:10046000210221E0892B09F420E0822F0895FC016C
:10047000848DDF01A80FB11DA35ABF4F2C91848D2D
:1004800090E001968F739927848FA689B7892C9362
:10049000A089B1898C9180648C93938D848D9813FD
:1004A00006C00288F389E02D80818F7D80830895C6
:1004B000EF92FF920F931F93CF93DF93EC0181E0B4
:1004C000888F9B8D8C8D981305C0E889F989808170
:1004D00085FD24C0F62E0B8D10E00F5F1F4F0F73AC
:1004E0001127E02E8C8DE8120CC00FB607FCFACF56
:1004F000E889F989808185FFF5CFCE010E94370216
:10050000F1CF8B8DFE01E80FF11DE35AFF4FF08212
:100510000B8FEA89FB898081806207C0EE89FF89A1
:100520006083E889F98980818064808381E090E03C
:10053000DF91CF911F910F91FF90EF900895CF938E
:10054000DF93EC01888D8823C9F0EA89FB898081DB
:1005500085FD05C0A889B9898C9186FD0FC00FB6AD
:1005600007FCF5CF808185FFF2CFA889B9898C91EE
:1005700085FFEDCFCE010E943702E7CFDF91CF910B
:10058000089580E090E0892B29F00E942D028111CE
:100590000C94000008950F931F93CF93DF93EC0109
:1005A0008A01072E000C880B990B0E94740161E0F0
:1005B00088810E94EC00B801110F880B990BDF9124
:1005C000CF911F910F910C947401009769F0FC0179
:1005D00001900020E9F73197AF01481B590BBC018E
:1005E0008FE493E00C94C10180E090E00895CF93F4
:1005F000DF930E94E502EC0188E191E00E94E502B0
:100600008C0F9D1FDF91CF9108958F929F92AF9293
:10061000BF92CF92DF92EF92FF920F931F93CF93EF
:10062000DF93CDB7DEB7A1970FB6F894DEBF0FBE4C
:10063000CDBF6C01990FEE08FF08F7FE31C0E091C5
:100640004F03F09150030190F081E02D6DE28FE4B3
:1006500093E009958C0122273327A9012C193D0924
:100660004E095F0919A2CE0181967C019AE0892E7C
:10067000912CA12CB12CCA01B901A50194010E94B1
:100680004F08605DF70162937F0121153105410537
:10069000510589F7CF010E94E502080F191F1EC0FE
:1006A000A701960119A28E010F5D1F4F8AE0C82E87
:1006B000D12CE12CF12CCA01B901A70196010E94AD
:1006C0004F08605DF80162938F01211531054105E6
:1006D000510589F7CF010E94E5028C0188E191E084
:1006E0000E94E502800F911FA1960FB6F894DEBF1D
:1006F0000FBECDBFDF91CF911F910F91FF90EF9073
:10070000DF90CF90BF90AF909F908F9008950E9400
:10071000820AFC0124813581232B31F421E061150B
:100720007105A1F0FB0108C0FC0180819181611578
:10073000710531F421E0FC018081882339F005C086
:100740000E94900A21E0892B09F020E0822F089571
:100750000F931F93CF93DF93EC01888199810097CA
:1007600029F02A813B812617370788F48B016F5FB8
:100770007F4F0E94B809009761F0998388831B839B
:100780000A832C813D81232B11F4FC01108281E02E
:1007900001C080E0DF91CF911F910F910895EF92FA
:1007A000FF920F931F93CF93DF9300D0CDB7DEB7A7
:1007B0008C01FC0111821082138212821582148234
:1007C00060E070E00E94A803F8012081318181116E
:1007D0000EC02115310519F0C9010E942009F80148
:1007E00011821082158214821382128226C0F801AF
:1007F000158214826AE171E0C9010E94990A1DC044
:1008000089831A82F801E480F580FFEFEF1AFF0A6E
:10081000B701C8010E94A803882379F0F80120815C
:10082000318184819581BE016F5F7F4F820F931F5D
:100830000E94990AF801F582E4820E94A60097FFBF
:10084000DFCFC8010F900F90DF91CF911F910F91D3
:10085000FF90EF9008951F920F920FB60F92112400
:100860002F933F938F939F93AF93BF9380914B03AD
:1008700090914C03A0914D03B0914E0330914603EB
:1008800023E0230F2D3720F40196A11DB11D05C0D3
:1008900026E8230F0296A11DB11D209346038093E5
:1008A0004B0390934C03A0934D03B0934E03809160
:1008B000470390914803A0914903B0914A030196E0
:1008C000A11DB11D8093470390934803A093490352
:1008D000B0934A03BF91AF919F918F913F912F9118
:1008E0000F900FBE0F901F9018951F920F920FB68A
:1008F0000F9211242F933F934F935F936F937F93A6
:100900008F939F93AF93BF93EF93FF938FE493E005
:100910000E943702FF91EF91BF91AF919F918F910C
:100920007F916F915F914F913F912F910F900FBEEB
:100930000F901F9018951F920F920FB60F921124CF
:100940002F938F939F93EF93FF93E0915F03F09129
:1009500060038081E0916503F091660382FD12C01F
:100960009081809168038F5F8F7320916903821754
:1009700051F0E0916803F0E0E15BFC4F958F8093CC
:10098000680301C08081FF91EF919F918F912F911A
:100990000F900FBE0F901F901895CF93DF93CDB798
:1009A000DEB7A5970FB6F894DEBF0FBECDBF789423
:1009B00084B5826084BD84B5816084BD85B5826064
:1009C00085BD85B5816085BD80916E008160809315
:1009D0006E0010928100809181008260809381007E
:1009E000809181008160809381008091800081608E
:1009F000809380008091B10084608093B1008091E9
:100A0000B00081608093B00080917A008460809310
:100A10007A0080917A00826080937A0080917A00D7
:100A2000816080937A0080917A00806880937A0058
:100A30001092C10089E00E94870088E00E94870030
:100A400087E00E94870086E00E94870085E00E9480
:100A5000870084E00E94870083E00E94870082E094
:100A60000E948700E0915F03F091600382E0808341
:100A7000E0915B03F0915C031082E0915D03F091E3
:100A80005E038FEC808310926703E0916303F09123
:100A9000640386E08083E0916103F09162038081CA
:100AA00080618083E0916103F091620380818860BE
:100AB0008083E0916103F09162038081806880838C
:100AC000E0916103F091620380818F7D80838BE1EF
:100AD00091E00E94F7028EE391E00E94F70289E51F
:100AE00091E00E94F7028BE191E00E94F7028E01F3
:100AF0000F5F1F4F8FE493E00E942102892B09F4BE
:100B000053C28FE493E00E94FF01813209F0B7C025
:100B1000C8010E94CF036AE771E0C8010E948903FF
:100B2000882371F080E00E9438010E9405038CE365
:100B300091E00E94F70280E00E9438010E940503C4
:100B40006FE771E0C8010E948903811108C064E861
:100B500071E0C8010E948903811117C031C099E07A
:100B6000E92EF12CFB8EEA8E43E250E060E070E06B
:100B7000CE014A960E94CB02CE014A960E94AE0157
:100B800021E0E21AF10871F7E2CF89E0E82EF12CBA
:100B9000FB8EEA8E40E050E068EE73E0CE014A96AC
:100BA0000E94CB028A8D9B8D0E94050368EE73E044
:100BB00080E090E00E94740181E0E81AF10841F7BA
:100BC00067E871E0C8010E9489038823B9F0B9E0A1
:100BD000EB2EF12CFB8EEA8ECE014A960E94AE01DE
:100BE0008A8D9B8D0E94050368EE73E080E090E0A3
:100BF0000E94740191E0E91AF10861F76BE871E075
:100C0000C8010E948903882361F083E291E00E9479
:100C1000F70281E991E00E94F70283E291E00E94ED
:100C2000F70260EA71E0C8010E948903882321F17C
:100C300083E291E00E94F70285EA91E00E94F702C8
:100C400087EB91E00E94F70281ED91E00E94F702AC
:100C500089EE91E00E94F70289E092E00E94F7029B
:100C60008DE292E00E94F7028DE592E00E94F70289
:100C700082E291E00E94F70289819A8193C18034D7
:100C800009F092C1CE014A960E94CF03EE8CFF8CF0
:100C9000E114F10411F4198211C0A8E1EA16F1047B
:100CA00018F0A8E1EA2EF12C6A8D7B8DA701C8010E
:100CB0000E94A00AF801EE0DFF1D1082F8010190BC
:100CC0000020E9F731972F01401A510A7EE7A72E3D
:100CD00072E0B72E4801E1E32E2EF0E33F2EC4016F
:100CE000801B910B841595050CF069C0F401E1900F
:100CF0004F010E2C000CFF0889E090E00E948B0849
:100D00006C0189E090E00E948B083C01F601CF0164
:100D10008C199D09A1E0EA16F104A9F0E0FC02C0DB
:100D2000308208C0C70162E070E00E943B08019772
:100D300009F42082F7FE03C02FEFE21AF20AF594BD
:100D4000E7943196E4CFF601E80FF91F208201966F
:100D5000873091052CF0F6013896A301C30109C034
:100D6000F601E80FF91F1082019688309105C1F74E
:100D7000F2CF2291DC012D93CD01EC15FD05C9F7D1
:100D800080E090E0FA012191AF01F501E80FF91F31
:100D90002083D5013C9201968930910599F7C114C1
:100DA000D10419F0C6010E9420096114710419F0E0
:100DB000C3010E942009B8E0AB0EB11C90CF84E8BB
:100DC000E82E82E0F82EC12CD12C97E0292E312C70
:100DD00026E0422E512C35E0632E712C44E0A42EE7
:100DE000B12C53E0852E912CF80101900020E9F7F9
:100DF0003197E01BF10BCE16DF0608F0D1C0F701EA
:100E000036978081803349F4E9E0F0E0FBA3EAA360
:100E1000CE0182960E94AE010EC0882361F089E067
:100E200090E09BA38AA340E050E060E070E0CE0138
:100E300082960E94CB02F70135978081803349F476
:100E4000A8E0B0E0BBA3AAA3CE0182960E94AE01A7
:100E50000EC0882361F0E8E0F0E0FBA3EAA340E0E5
:100E600050E060E070E0CE0182960E94CB02F70174
:100E700034978081803339F43BA22AA2CE01829636
:100E80000E94AE010CC0882351F03BA22AA240E090
:100E900050E060E070E0CE0182960E94CB02F70144
:100EA00033978081803339F45BA24AA2CE018296C7
:100EB0000E94AE010CC0882351F05BA24AA240E020
:100EC00050E060E070E0CE0182960E94CB02F70114
:100ED00032978081803339F47BA26AA2CE01829658
:100EE0000E94AE010CC0882351F07BA26AA240E0B0
:100EF00050E060E070E0CE0182960E94CB02F701E4
:100F000031978081803339F4BBA2AAA2CE018296A8
:100F10000E94AE010CC0882351F0BBA2AAA240E0FF
:100F200050E060E070E0CE0182960E94CB02D701D3
:100F30008C91803339F49BA28AA2CE0182960E94C2
:100F4000AE010CC0882351F09BA28AA240E050E081
:100F500060E070E0CE0182960E94CB0268EE73E002
:100F600080E090E00E94740129E030E039A328A3DA
:100F7000CE0180962CA33DA30E94AE012CA13DA1E1
:100F80002150310999F768EE73E080E090E00E940B
:100F90007401BFEFCB1ADB0AE8E0EE0EF11C24CFA0
:100FA0008A8D9B8D0E9420090E94C102A3CDEFE48F
:100FB000F3E01382128288EE93E0A0E0B0E0848335
:100FC0009583A683B7838AE091E09183808385EC43
:100FD00090E09587848784EC90E09787868780EC03
:100FE00090E0918B808B81EC90E0938B828B82ECF4
:100FF00090E0958B848B86EC90E0978B868B118E9E
:10100000128E138E148E08952F923F924F925F92FC
:101010006F927F928F929F92AF92BF92CF92DF9208
:10102000EF92FF920F931F93CF93DF93CDB7DEB76D
:10103000CA1BDB0B0FB6F894DEBF0FBECDBF099401
:101040002A88398848885F846E847D848C849B8458
:10105000AA84B984C884DF80EE80FD800C811B8166
:10106000AA81B981CE0FD11D0FB6F894DEBF0FBE95
:10107000CDBFED01089597FB072E16F4009407D01D
:1010800077FD09D00E94710807FC05D03EF49095C9
:1010900081959F4F0895709561957F4F0895A1E2C6
:1010A0001A2EAA1BBB1BFD010DC0AA1FBB1FEE1FE2
:1010B000FF1FA217B307E407F50720F0A21BB30B2D
:1010C000E40BF50B661F771F881F991F1A9469F7A9
:1010D00060957095809590959B01AC01BD01CF0105
:1010E0000895AA1BBB1B51E107C0AA1FBB1FA6176F
:1010F000B70710F0A61BB70B881F991F5A95A9F7C1
:1011000080959095BC01CD010895EE0FFF1F0590CD
:10111000F491E02D0994CF93DF938230910510F480
:1011200082E090E0E091EE03F091EF0320E030E008
:10113000C0E0D0E0309711F1408151814817590744
:10114000C0F04817590761F482819381209719F004
:101150009B838A832BC09093EF038093EE0326C07A
:101160002115310519F04217530718F49A01BE01F1
:10117000DF01EF010280F381E02DDCCF2115310585
:1011800009F1281B390B2430310590F412968D910A
:101190009C9113976115710521F0FB019383828364
:1011A00004C09093EF038093EE03FD01329644C098
:1011B000FD01E20FF31F81939193225031092D938A
:1011C0003C933AC02091EC033091ED03232B41F482
:1011D00020910201309103013093ED032093EC0341
:1011E00020910001309101012115310541F42DB705
:1011F0003EB74091040150910501241B350BE0914D
:10120000EC03F091ED03E217F307A0F42E1B3F0B64
:101210002817390778F0AC014E5F5F4F2417350768
:1012200048F04E0F5F1F5093ED034093EC03819302
:10123000919302C0E0E0F0E0CF01DF91CF910895FB
:101240000F931F93CF93DF93009709F48CC0FC0199
:101250003297138212820091EE031091EF03011571
:10126000110581F420813181820F931F2091EC03BD
:101270003091ED032817390779F5F093ED03E093EA
:10128000EC0371C0D80140E050E0AE17BF0750F446
:1012900012962D913C911397AD012115310509F15D
:1012A000D901F3CF9D01DA013383228360817181FB
:1012B000860F971F8217930769F4EC012881398103
:1012C000260F371F2E5F3F4F318320838A819B81FA
:1012D00093838283452B29F4F093EF03E093EE038D
:1012E00042C01396FC93EE931297ED0149915991E8
:1012F0009E01240F351FE217F30771F4808191815D
:10130000840F951F029611969C938E9382819381F0
:1013100013969C938E931297E0E0F0E0D80112961A
:101320008D919C911397009719F0F8018C01F6CFDD
:101330008D919C9198012E5F3F4F820F931F2091BA
:10134000EC033091ED032817390769F4309729F43D
:101350001092EF031092EE0302C0138212821093D8
:10136000ED030093EC03DF91CF911F910F9108954E
:10137000A0E0B0E0EEEBF9E00C940808EC01009777
:1013800021F4CB010E948B08B8C0FC01E60FF71FC7
:101390009C0122503109E217F30708F4ACC0D901CF
:1013A0000D911C91119706171707B0F00530110524
:1013B00008F49FC0C80104978617970708F499C0DE
:1013C00002501109061B170B019311936D937C9327
:1013D000CF010E9420098DC05B01A01AB10A4C0107
:1013E000800E911EA091EE03B091EF0340E050E01B
:1013F000E12CF12C109709F44AC0A815B905D1F5D4
:101400006D907C901197630182E0C80ED11CCA14C4
:10141000DB0480F1A3014A195B096A0182E0C80E6E
:10142000D11C1296BC9012971396AC91B5E0CB16D6
:10143000D10440F0B282A38351834083D9016D93DC
:101440007C930AC00E5F1F4FC301800F911FF901EB
:1014500091838083EB2DFA2FE114F10431F0D70151
:101460001396FC93EE93129744C0F093EF03E0932E
:10147000EE033FC08D919C9111974817590708F4CE
:10148000AC017D0112960D90BC91A02DB3CF80913F
:10149000EC039091ED0388159905E1F44617570781
:1014A000C8F48091000190910101009741F48DB73B
:1014B0009EB74091040150910501841B950BE817DC
:1014C000F907C8F4F093ED03E093EC03F90171839D
:1014D00060830FC0CB010E948B087C01009759F0FC
:1014E000A801BE010E94870ACE010E942009C701FF
:1014F00004C0CE0102C080E090E0CDB7DEB7EEE0E0
:101500000C94240881E090E0F8940C94AF0AFB015D
:10151000DC0102C001900D9241505040D8F708956F
:10152000FB01DC018D91019080190110D9F3990B19
:101530000895FB01DC0101900D920020E1F7089570
:10154000FB01DC014150504048F001900D92002019
:10155000C9F701C01D9241505040E0F70895F8943A
:02156000FFCFBB
:101562000000F0038000000000005802C101F001F9
:101572009F022102FF0113020D0A002D2D2D2D2D98
:101582002D2D2D2D2D2D2D2D2D2D2D2D2D2D2D2D89
:101592002D2D2D2D2D2D2D2D2D2D2D2D2D002020C0
:1015A2002057656C636F6D6520746F204C692D4602
:1015B2006920762E20312E30004C692D46693A2062
:1015C2002054797065202168656C7020666F7220E6
:1015D200636F6D6D616E64732E0072656164007479
:1015E200657374006F6E006F666600636C6561728E
:1015F200004C692D46693A20436C6561726564004E
:1016020068656C70004C692D46693A20215B636FF6
:101612006D6D616E645D002020216F6666202D2055
:101622007475726E73206F6666206C617365722EBC
:10163200002020216F6E202D207475726E73206C35
:1016420061736572206F6E2E00202021636C6561CC
:1016520072202D20636C65617273206C617374203B
:10166200636F6D6D616E642E00202021746573744A
:10167200202D2077696C6C207465737420726573F9
:101682006973746F7220696E7075742E0020202148
:1016920072656164202D2077696C6C2067697665BC
:1016A2002063757272656E74207261772072657341
:1016B2006973746F722076616C75652E00202054F8
:1016C2006F207472616E736D697420776F726473C8
:0E16D2002C20405B73656E74656E63655D0071
:00000001FF
